:100000000C942A000C945F0A0C948C0A0C94B90A84
:100010000C9414060C9441060C94FA070C94730784
:100020000C94A0070C94CD070C949B080C94C80862
:100030000C9447000C9447000C9447000C94470024
:100040000C947A0F0C9447000C9447000C944700D2
:100050000C94470011241FBECFE5D8E0DEBFCDBF12
:1000600010E0A0E6B0E0ECEFFAE302C005900D92DC
:10007000A839B107D9F710E0A8E9B0E001C01D9296
:10008000A33AB107E1F70E94FD1B0C947C1D0C9470
:100090000000EF92FF920F931F937B018C0120E0F1
:1000A00030E040E05FE40E94490388238CF0C801FF
:1000B000B70120E030E040E05FE40E94C1010E940F
:1000C000A9039B01AC01205030404040504806C07D
:1000D000C801B7010E94A9039B01AC01B901CA0183
:1000E0001F910F91FF90EF900895A0E0B0E0EBE733
:1000F000F0E00C94451DDC012B01FA019C9192303B
:1001000008F439C1EB018881823008F433C194309E
:1001100069F4843009F02FC111969C91119789815F
:10012000981709F428C1AFE7B0E025C1843009F47D
:1001300021C18230A9F4923009F01DC19A01AD01AC
:1001400088E0EA010990AE01E90109929E0181501F
:10015000C1F7E201898111969C918923818308C1AD
:10016000923009F407C112962D903C901397EB0141
:100170008A819B811496AD90BD90CD90DC901797AD
:10018000EC80FD800E811F819101281B390BB90184
:1001900037FF04C066277727621B730B6032710537
:1001A0000CF061C0121613066CF537014801062EDB
:1001B00004C096948794779467940A94D2F721E0C8
:1001C00030E040E050E004C0220F331F441F551FB1
:1001D0006A95D2F721503040404050402E213F21B7
:1001E00040235123211531054105510521F021E01E
:1001F00030E040E050E079018A01E628F72808293C
:1002000019293CC0232BD1F1260E371E350146019A
:10021000062E04C096948794779467940A94D2F734
:1002200021E030E040E050E004C0220F331F441FC3
:10023000551F6A95D2F721503040404050402A2146
:100240003B214C215D21211531054105510521F04E
:1002500021E030E040E050E059016A01A628B728CB
:10026000C828D9280BC0821593052CF01C01AA249C
:10027000BB24650103C0EE24FF24870111969C91E5
:10028000D20111968C91981709F445C0992339F041
:10029000A80197012A193B094C095D0906C0A6016E
:1002A00095012E193F09400B510B57FD08C01182D3
:1002B0003382228224833583468357831DC081E0A5
:1002C00081833382228288279927DC01821B930B4A
:1002D000A40BB50B84839583A683B7830DC0220F2F
:1002E000331F441F551F24833583468357838281E0
:1002F000938101979383828324813581468157813D
:10030000DA01C9010197A109B1098F5F9F4FAF4F72
:10031000BF4328F30BC0918333822282EA0CFB1C7B
:100320000C1D1D1DE482F5820683178383E0808304
:10033000248135814681578157FF1AC0C901AA27F8
:1003400097FDA095BA2F81709070A070B0705695EF
:10035000479537952795822B932BA42BB52B848318
:100360009583A683B7838281938101969383828349
:10037000DF0101C0D201CD01CDB7DEB7E2E10C94BF
:10038000611DA0E2B0E0E7ECF1E00C94511D69833F
:100390007A838B839C832D833E834F835887E9E048
:1003A000EE2EF12CEC0EFD1ECE010196B7010E943F
:1003B000D2048E010F5E1F4FCE010596B8010E9438
:1003C000D2048A8991E089278A8BC701B801AE01DE
:1003D000475E5F4F0E9475000E94FD03A096E6E015
:1003E0000C946D1DA0E2B0E0E8EFF1E00C94511D1B
:1003F00069837A838B839C832D833E834F835887C5
:10040000F9E0EF2EF12CEC0EFD1ECE010196B701A6
:100410000E94D2048E010F5E1F4FCE010596B801D7
:100420000E94D204C701B801AE01475E5F4F0E942F
:1004300075000E94FD03A096E6E00C946D1DA0E2FD
:10044000B0E0E5E2F2E00C94451D69837A838B838A
:100450009C832D833E834F835887CE010196BE0136
:10046000675F7F4F0E94D204CE010596BE016F5E8A
:100470007F4F0E94D2049985923088F0898982301A
:10048000C8F0943019F4823051F404C0843029F457
:10049000923081F48FE790E0C6C0923049F420E0BA
:1004A0009A858A89981321E02A87CE010996BBC0D4
:1004B000823049F420E09A858A89981321E02A8BBA
:1004C000CE014196B0C02D843E844F8458886D88FB
:1004D0007E888F88988CEE24FF248701AA24BB2471
:1004E000650140E050E060E070E0E0E0F0E0C10174
:1004F00081709070892BE9F0E60CF71C081D191D1E
:100500009A01AB012A0D3B1D4C1D5D1D80E090E062
:10051000A0E0B0E0E614F7040805190520F481E036
:1005200090E0A0E0B0E0BA01A901480F591F6A1F8E
:100530007B1FAA0CBB1CCC1CDD1C97FE08C081E0F5
:1005400090E0A0E0B0E0A82AB92ACA2ADB2A3196B6
:10055000E032F10549F0660C771C881C991C569412
:10056000479437942794C3CFFA85EA892B893C892D
:100570008B859C85280F391F2E5F3F4F17C0CA01FE
:1005800081709070892B61F016950795F794E79428
:1005900080E090E0A0E0B0E8E82AF92A0A2B1B2BC3
:1005A00076956795579547952F5F3F4F77FDE7CF36
:1005B0000CC0440F551F661F771F17FD4160EE0CDE
:1005C000FF1C001F111F21503040403090E05907A0
:1005D00090E0690790E4790760F32B8F3C8FDB0193
:1005E000CA018F779070A070B07080349105A1051A
:1005F000B10561F447FD0AC0E114F10401051105DC
:1006000029F0405C5F4F6F4F7F4F40781A8EFE1786
:1006100011F081E08A8F4D8F5E8F6F8F78A383E01A
:10062000898FCE0149960E94FD03A096E2E10C94C9
:10063000611DA8E1B0E0EFE1F3E00C94511D698386
:100640007A838B839C832D833E834F83588789E0F5
:10065000E82EF12CEC0EFD1ECE010196B7010E9492
:10066000D2048E010F5E1F4FCE010596B8010E9485
:10067000D2048985823040F08989823028F0C70110
:10068000B8010E944A0501C08FEF6896E6E00C941D
:100690006D1DA8E1B0E0EFE4F3E00C94511D698317
:1006A0007A838B839C832D833E834F83588789E095
:1006B000E82EF12CEC0EFD1ECE010196B7010E9432
:1006C000D2048E010F5E1F4FCE010596B8010E9425
:1006D000D2048985823040F08989823028F0C701B0
:1006E000B8010E944A0501C08FEF6896E6E00C94BD
:1006F0006D1DA8E1B0E0EFE7F3E00C94511D6983B4
:100700007A838B839C832D833E834F83588789E034
:10071000E82EF12CEC0EFD1ECE010196B7010E94D1
:10072000D2048E010F5E1F4FCE010596B8010E94C4
:10073000D2048985823040F08989823028F0C7014F
:10074000B8010E944A0501C081E06896E6E00C9479
:100750006D1DACE0B0E0EFEAF3E00C94551D698349
:100760007A838B839C83CE010196BE016B5F7F4FA2
:100770000E94D2048D81823061F1823050F1843048
:1007800021F48E81882351F12EC02F81388537FDC9
:1007900020C06E812F3131051CF06623F9F023C093
:1007A0008EE190E0821B930B29853A854B855C8511
:1007B00004C056954795379527958A95D2F76623B5
:1007C000B1F050954095309521953F4F4F4F5F4F79
:1007D0000EC020E030E040E050E009C02FEF3FEFD6
:1007E0004FEF5FE704C020E030E040E050E8B9019F
:1007F000CA012C96E2E00C94711DDF92EF92FF92F9
:100800000F931F93FC01E480F58006811781D1804E
:100810008081823048F480E090E0A0E1B0E0E82AF6
:10082000F92A0A2B1B2BA5C0843009F49FC0823003
:1008300021F4EE24FF24870105C0E114F104010531
:10084000110519F4E0E0F0E096C0628173819FEF3A
:10085000623879070CF05BC022E83FEF261B370BAC
:100860002A3131052CF020E030E040E050E02AC091
:10087000B801A701022E04C0769567955795479554
:100880000A94D2F781E090E0A0E0B0E004C0880FC5
:10089000991FAA1FBB1F2A95D2F70197A109B10979
:1008A0008E219F21A023B1230097A105B10521F03E
:1008B00081E090E0A0E0B0E09A01AB01282B392B59
:1008C0004A2B5B2BDA01C9018F779070A070B07052
:1008D00080349105A105B10539F427FF09C0205CDA
:1008E0003F4F4F4F5F4F04C0215C3F4F4F4F5F4F13
:1008F000E0E0F0E02030A0E03A07A0E04A07A0E402
:100900005A0710F0E1E0F0E079018A0127C0603871
:10091000710564F5FB01E158FF4FD801C7018F77DE
:100920009070A070B07080349105A105B10539F4C4
:10093000E7FE0DC080E490E0A0E0B0E004C08FE3EB
:1009400090E0A0E0B0E0E80EF91E0A1F1B1F17FFA1
:1009500005C016950795F794E794319687E01695AC
:100960000795F794E7948A95D1F705C0EE24FF2404
:100970008701EFEFF0E06E2F679566276795902F60
:100980009F77D794DD24D7948E2F8695492F462BB9
:10099000582F5D29B701CA011F910F91FF90EF9069
:1009A000DF900895FC01DB01408151812281622F9B
:1009B0006F7770E0221F2227221F9381892F880FD3
:1009C000822B282F30E0991F9927991F11969C930D
:1009D000119721153105A9F54115510561057105DD
:1009E00011F482E037C082E89FEF13969C938E93B8
:1009F00012979A01AB0167E0220F331F441F551F66
:100A00006A95D1F783E08C930DC0220F331F441FEA
:100A1000551F12968D919C911397019713969C9355
:100A20008E931297203080E0380780E0480780E4FA
:100A3000580758F314962D933D934D935C93179755
:100A400008952F3F310579F4411551056105710570
:100A500019F484E08C93089564FF03C081E08C93C3
:100A600012C01C9210C02F57304013963C932E9307
:100A7000129783E08C9387E0440F551F661F771F02
:100A80008A95D1F7706414964D935D936D937C9322
:100A9000179708951F93DC01FB019C91923008F495
:100AA00047C08081823008F443C0943051F41196DD
:100AB0001C91843099F58181682F70E0611B710968
:100AC0003FC0843021F0923031F48230B9F181811D
:100AD000882389F12DC011961C9111978230F1F075
:100AE00081811817D9F412962D913C911397828128
:100AF00093818217930794F028173907BCF0149656
:100B00008D919D910D90BC91A02D248135814681C0
:100B10005781281739074A075B0718F4112341F05A
:100B20000AC082179307A407B50740F4112319F0F0
:100B300061E070E005C06FEF7FEF02C060E070E041
:100B4000CB011F910895DF93CF93CDB7DEB7A5E416
:100B5000B0E0E5E4F0E0808180648C93A5E4B0E04F
:100B6000E5E4F0E0808188608C93A5E4B0E0E5E402
:100B7000F0E080818F7E8C93A5E4B0E0E5E4F0E0C6
:100B8000808180628C93A5E4B0E0E5E4F0E08081B0
:100B9000887F8C93A5E4B0E0E5E4F0E08081856097
:100BA0008C93CF91DF910895DF93CF930F92CDB7C0
:100BB000DEB78983E4E4F0E0898180830F90CF91F0
:100BC000DF910895DF93CF930F92CDB7DEB789837E
:100BD000E3E4F0E0898180830F90CF91DF91089565
:100BE000DF93CF9300D0CDB7DEB79A838983898115
:100BF0009A8190939A00809399000F900F90CF91D3
:100C0000DF910895DF93CF9300D0CDB7DEB79A83FD
:100C1000898389819A8190939A00809399000F909B
:100C20000F90CF91DF9108951F920F920FB60F9200
:100C300011242F933F934F935F936F937F938F93E1
:100C40009F93AF93BF93EF93FF93DF93CF93CDB772
:100C5000DEB7E0919900F0919A000995CF91DF916C
:100C6000FF91EF91BF91AF919F918F917F916F9184
:100C70005F914F913F912F910F900FBE0F901F905A
:100C800018951F920F920FB60F9211242F933F9336
:100C90004F935F936F937F938F939F93AF93BF9384
:100CA000EF93FF93DF93CF93CDB7DEB7E091990039
:100CB000F0919A000995CF91DF91FF91EF91BF914B
:100CC000AF919F918F917F916F915F914F913F91E4
:100CD0002F910F900FBE0F901F901895DF93CF9319
:100CE000CDB7DEB7AFE4B0E0EFE4F0E080818E7F17
:100CF0008C93AFE4B0E0EFE4F0E080818D7F8C93E3
:100D0000AEE4B0E0EEE4F0E08081877F8C93AEE467
:100D1000B0E0EEE4F0E080818F7E8C93A9E5B0E056
:100D2000E9E5F0E0808184608C93AEE4B0E0EEE42D
:100D3000F0E08081887F8C93AEE4B0E0EEE4F0E0F8
:100D4000808183608C93CF91DF910895DF93CF935F
:100D5000CDB7DEB7A9E5B0E0E9E5F0E080818062DB
:100D60008C93AEE4B0E0EEE4F0E0808180688C9398
:100D7000CF91DF910895DF93CF9300D00F92CDB73D
:100D8000DEB789838981282F30E03B832A838A81DB
:100D90009B81009769F02A813B812130310579F4EC
:100DA000AEE4B0E0EEE4F0E0808180648C9307C0B4
:100DB000AEE4B0E0EEE4F0E080818F7B8C930F90A6
:100DC0000F900F90CF91DF910895DF93CF9300D0D4
:100DD000CDB7DEB79A838983ECE4F0E089819A810C
:100DE000918380830F900F90CF91DF910895DF93CF
:100DF000CF9300D0CDB7DEB79A838983E8E4F0E0E3
:100E000089819A81918380830F900F90CF91DF9198
:100E10000895DF93CF9300D0CDB7DEB79A8389834F
:100E2000EAE4F0E089819A81918380830F900F90AA
:100E3000CF91DF910895DF93CF9300D0CDB7DEB788
:100E40009A838983E6E4F0E089819A8191838083A3
:100E50000F900F90CF91DF910895DF93CF9300D043
:100E6000CDB7DEB79A83898389819A8190939C005C
:100E700080939B000F900F90CF91DF910895DF93A7
:100E8000CF9300D0CDB7DEB79A83898389819A81C9
:100E900090939C0080939B000F900F90CF91DF91D7
:100EA0000895DF93CF93CDB7DEB7E6E4F0E080811D
:100EB0009181CC01A0E0B0E0BC01CD01CF91DF91E8
:100EC0000895DF93CF9300D0CDB7DEB79A8389839F
:100ED00089819A8190939C0080939B000F900F9042
:100EE000CF91DF9108951F920F920FB60F921124A8
:100EF0002F933F934F935F936F937F938F939F9322
:100F0000AF93BF93EF93FF93DF93CF93CDB7DEB74C
:100F1000E0919B00F0919C000995CF91DF91FF91AA
:100F2000EF91BF91AF919F918F917F916F915F9161
:100F30004F913F912F910F900FBE0F901F901895DA
:100F40001F920F920FB60F9211242F933F934F933E
:100F50005F936F937F938F939F93AF93BF93EF9321
:100F6000FF93DF93CF93CDB7DEB7E0919B00F09175
:100F70009C000995CF91DF91FF91EF91BF91AF91C7
:100F80009F918F917F916F915F914F913F912F91A1
:100F90000F900FBE0F901F9018951F920F920FB6D3
:100FA0000F9211242F933F934F935F936F937F93EF
:100FB0008F939F93AF93BF93EF93FF93DF93CF9361
:100FC000CDB7DEB7E0919B00F0919C000995CF91E1
:100FD000DF91FF91EF91BF91AF919F918F917F91A1
:100FE0006F915F914F913F912F910F900FBE0F9096
:100FF0001F9018951F920F920FB60F9211242F93E6
:101000003F934F935F936F937F938F939F93AF9390
:10101000BF93EF93FF93DF93CF93CDB7DEB7E0910C
:101020009B00F0919C000995CF91DF91FF91EF918A
:10103000BF91AF919F918F917F916F915F914F91F0
:101040003F912F910F900FBE0F901F901895DF9337
:10105000CF93CDB7DEB7A3E5B0E0E3E5F0E0808164
:10106000877F8C93A3E5B0E0E3E5F0E080818F7BA0
:101070008C93A9E5B0E0E9E5F0E0808181608C9394
:10108000A3E5B0E0E3E5F0E08081887F8C93A3E501
:10109000B0E0E3E5F0E0808184608C93CF91DF9154
:1010A0000895DF93CF93CDB7DEB7E2E5F0E080811E
:1010B000CF91DF910895DF93CF930F92CDB7DEB735
:1010C0008983E2E5F0E0898180830F90CF91DF9101
:1010D0000895DF93CF930F92CDB7DEB78983ECE508
:1010E000F0E0898180830F90CF91DF910895DF93A5
:1010F000CF9300D0CDB7DEB79A83898389819A8157
:1011000090939E0080939D000F900F90CF91DF9160
:101110000895DF93CF9300D0CDB7DEB79A8389834C
:1011200089819A8190939E0080939D000F900F90EB
:10113000CF91DF9108951F920F920FB60F92112455
:101140002F933F934F935F936F937F938F939F93CF
:10115000AF93BF93EF93FF93DF93CF93CDB7DEB7FA
:10116000E0919D00F0919E000995CF91DF91FF9154
:10117000EF91BF91AF919F918F917F916F915F910F
:101180004F913F912F910F900FBE0F901F90189588
:101190001F920F920FB60F9211242F933F934F93EC
:1011A0005F936F937F938F939F93AF93BF93EF93CF
:1011B000FF93DF93CF93CDB7DEB7E0919D00F09121
:1011C0009E000995CF91DF91FF91EF91BF91AF9173
:1011D0009F918F917F916F915F914F913F912F914F
:1011E0000F900FBE0F901F901895DF93CF93CDB740
:1011F000DEB7AFE5B0E0EFE5F0E0808180688C938A
:10120000CF91DF910895DF93CF93CDB7DEB7AFE5F0
:10121000B0E0EFE5F0E080818F778C93CF91DF91A4
:101220000895DF93CF93CDB7DEB7A5E5B0E0E5E550
:10123000F0E0808182608C93A5E5B0E0E5E5F0E028
:1012400080818E7F8C93ABE5B0E0EBE5F0E08081B0
:1012500080648C93CF91DF910895DF93CF93CDB7C6
:10126000DEB7A5E5B0E0E5E5F0E0808188608C932D
:10127000A5E5B0E0E5E5F0E0808184608C93ABE526
:10128000B0E0EBE5F0E0808180688C93CF91DF9156
:101290000895DF93CF93CDB7DEB7A4E5B0E0E4E5E2
:1012A000F0E080818F7B8C93ABE5B0E0EBE5F0E084
:1012B000808180628C93CF91DF910895DF93CF93EB
:1012C00000D000D0CDB7DEB789836A838981282F0B
:1012D00030E03C832B838B819C818130910509F424
:1012E00054C02B813C812230310509F496C08B819A
:1012F0009C81009709F0A6C08A81882379F4A5E52E
:10130000B0E0E5E5F0E0808182608C93A5E5B0E097
:10131000E5E5F0E0808181608C9394C08A81813022
:1013200079F4A5E5B0E0E5E5F0E0808182608C939A
:10133000A5E5B0E0E5E5F0E080818E7F8C9382C08A
:101340008A81823079F4A5E5B0E0E5E5F0E08081BE
:101350008D7F8C93A5E5B0E0E5E5F0E080818160CC
:101360008C9370C08A81833009F06CC0A5E5B0E031
:10137000E5E5F0E080818D7F8C93A5E5B0E0E5E5C3
:10138000F0E080818E7F8C935DC08A81882379F420
:10139000A5E5B0E0E5E5F0E0808188608C93A5E507
:1013A000B0E0E5E5F0E0808184608C934BC08A81F9
:1013B000813079F4A5E5B0E0E5E5F0E08081886072
:1013C0008C93A5E5B0E0E5E5F0E080818B7F8C9320
:1013D00039C08A81823079F4A5E5B0E0E5E5F0E036
:1013E0008081877F8C93A5E5B0E0E5E5F0E0808122
:1013F00084608C9327C08A81833021F5A5E5B0E015
:10140000E5E5F0E08081877F8C93A5E5B0E0E5E538
:10141000F0E080818B7F8C9315C08A81882341F412
:10142000A4E5B0E0E4E5F0E0808180648C930AC03C
:101430008A81813039F4A4E5B0E0E4E5F0E0808110
:101440008F7B8C930F900F900F900F90CF91DF9127
:101450000895DF93CF9300D0CDB7DEB79A83898309
:1014600089819A819093A00080939F000F900F90A4
:10147000CF91DF910895DF93CF9300D0CDB7DEB742
:101480009A83898389819A819093A00080939F0099
:101490000F900F90CF91DF910895DF93CF9300D0FD
:1014A000CDB7DEB79A83898389819A819093A00012
:1014B00080939F000F900F90CF91DF9108951F921E
:1014C0000F920FB60F9211242F933F934F935F9378
:1014D0006F937F938F939F93AF93BF93EF93FF93FC
:1014E000DF93CF93CDB7DEB7E0919F00F091A000DE
:1014F0000995CF91DF91FF91EF91BF91AF919F91AE
:101500008F917F916F915F914F913F912F910F90AC
:101510000FBE0F901F9018951F920F920FB60F924B
:1015200011242F933F934F935F936F937F938F93E8
:101530009F93AF93BF93EF93FF93DF93CF93CDB779
:10154000DEB7E0919F00F091A0000995CF91DF9167
:10155000FF91EF91BF91AF919F918F917F916F918B
:101560005F914F913F912F910F900FBE0F901F9061
:1015700018951F920F920FB60F9211242F933F933D
:101580004F935F936F937F938F939F93AF93BF938B
:10159000EF93FF93DF93CF93CDB7DEB7E0919F003A
:1015A000F091A0000995CF91DF91FF91EF91BF914C
:1015B000AF919F918F917F916F915F914F913F91EB
:1015C0002F910F900FBE0F901F901895DF93CF9320
:1015D000CDB7DEB728970FB6F894DEBF0FBECDBFEC
:1015E0008A836B834C8381E089838B81883008F008
:1015F000F1C08C81813009F071C08A81282F30E0E0
:1016000038872F838F8198858130910549F12F810B
:101610003885223031052CF48F819885009761F050
:101620005BC02F8138852230310571F18F8198851B
:1016300083309105E9F150C0AAE3B0E0EAE3F0E0BD
:101640008081482F8B81282F30E081E090E0022EAE
:1016500002C0880F991F0A94E2F7842B8C93BBC0B9
:10166000A7E3B0E0E7E3F0E08081482F8B81282FEB
:1016700030E081E090E0022E02C0880F991F0A94AA
:10168000E2F7842B8C93A7C0A4E3B0E0E4E3F0E09E
:101690008081482F8B81282F30E081E090E0022E5E
:1016A00002C0880F991F0A94E2F7842B8C9393C091
:1016B000A1E3B0E0E1E3F0E08081482F8B81282FA7
:1016C00030E081E090E0022E02C0880F991F0A945A
:1016D000E2F7842B8C937FC019827DC08C81882394
:1016E00009F076C08A81282F30E03E832D838D81DA
:1016F0009E818130910559F12D813E812230310545
:101700002CF48D819E81009769F060C02D813E810F
:101710002230310589F18D819E818330910509F454
:1017200040C054C0AAE3B0E0EAE3F0E08081482F73
:101730008B81282F30E081E090E0022E02C0880FDC
:10174000991F0A94E2F7809584238C9344C0A7E301
:10175000B0E0E7E3F0E08081482F8B81282F30E074
:1017600081E090E0022E02C0880F991F0A94E2F7F0
:10177000809584238C932FC0A4E3B0E0E4E3F0E0F1
:101780008081482F8B81282F30E081E090E0022E6D
:1017900002C0880F991F0A94E2F7809584238C93E6
:1017A0001AC0A1E3B0E0E1E3F0E08081482F8B8133
:1017B000282F30E081E090E0022E02C0880F991FB0
:1017C0000A94E2F7809584238C9305C0198203C0A4
:1017D000198201C01982898128960FB6F894DEBF5C
:1017E0000FBECDBFCF91DF910895DF93CF93CDB7DB
:1017F000DEB728970FB6F894DEBF0FBECDBF8A8341
:101800006B834C8381E089838B81883008F0F1C041
:101810008C81813009F071C08A81282F30E03887AF
:101820002F838F8198858130910549F12F813885EB
:10183000223031052CF48F819885009761F05BC0D0
:101840002F8138852230310571F18F819885833061
:101850009105E9F150C0ABE3B0E0EBE3F0E080814B
:10186000482F8B81282F30E081E090E0022E02C0CB
:10187000880F991F0A94E2F7842B8C93BBC0A8E3CE
:10188000B0E0E8E3F0E08081482F8B81282F30E042
:1018900081E090E0022E02C0880F991F0A94E2F7BF
:1018A000842B8C93A7C0A5E3B0E0E5E3F0E0808152
:1018B000482F8B81282F30E081E090E0022E02C07B
:1018C000880F991F0A94E2F7842B8C9393C0A2E3AC
:1018D000B0E0E2E3F0E08081482F8B81282F30E0F8
:1018E00081E090E0022E02C0880F991F0A94E2F76F
:1018F000842B8C937FC019827DC08C81882309F052
:1019000076C08A81282F30E03E832D838D819E8191
:101910008130910559F12D813E81223031052CF421
:101920008D819E81009769F060C02D813E812230BB
:10193000310589F18D819E818330910509F440C084
:1019400054C0ABE3B0E0EBE3F0E08081482F8B8143
:10195000282F30E081E090E0022E02C0880F991F0E
:101960000A94E2F7809584238C9344C0A8E3B0E006
:10197000E8E3F0E08081482F8B81282F30E081E080
:1019800090E0022E02C0880F991F0A94E2F780951A
:1019900084238C932FC0A5E3B0E0E5E3F0E08081E1
:1019A000482F8B81282F30E081E090E0022E02C08A
:1019B000880F991F0A94E2F7809584238C931AC0AC
:1019C000A2E3B0E0E2E3F0E08081482F8B81282F92
:1019D00030E081E090E0022E02C0880F991F0A9447
:1019E000E2F7809584238C9305C0198203C0198285
:1019F00001C01982898128960FB6F894DEBF0FBE08
:101A0000CDBFCF91DF910895DF93CF93CDB7DEB7F0
:101A100027970FB6F894DEBF0FBECDBF8A836B83C6
:101A20005D834C8381E089838B81883008F073C0AB
:101A30008A81282F30E03F832E834E815F814130A1
:101A4000510559F18E819F818230910534F42E81A8
:101A50003F812115310569F05CC04E815F814230C4
:101A6000510579F18E819F818330910509F43DC044
:101A700050C0E9E3F0E08081282F30E08B81882F8F
:101A800090E0A90102C0559547958A95E2F7CA01F1
:101A90008170EC81FD8180833FC0E6E3F0E08081CE
:101AA000282F30E08B81882F90E0A90102C0559546
:101AB00047958A95E2F7CA018170EC81FD818083A8
:101AC0002BC0E3E3F0E08081282F30E08B81882F6A
:101AD00090E0A90102C0559547958A95E2F7CA01A1
:101AE0008170EC81FD81808317C0E0E3F0E08081AC
:101AF000282F30E08B81882F90E0A90102C05595F6
:101B000047958A95E2F7CA018170EC81FD81808357
:101B100003C0198201C01982898127960FB6F894F3
:101B2000DEBF0FBECDBFCF91DF910895DF93CF937E
:101B300000D000D00F92CDB7DEB78A836B8381E0EF
:101B400089838B818F3F19F08B818823A9F58A8146
:101B5000282F30E03D832C838C819D81813091053D
:101B6000D1F02C813D81223031052CF48C819D8176
:101B7000009761F01FC02C813D812230310581F03A
:101B80008C819D818330910581F014C0EAE3F0E0FF
:101B90008B81808312C0E7E3F0E08B8180830DC0EE
:101BA000E4E3F0E08B81808308C0E1E3F0E08B8127
:101BB000808303C0198201C0198289810F900F9020
:101BC0000F900F900F90CF91DF910895DF93CF93F7
:101BD00000D000D00F92CDB7DEB78A836B8381E04F
:101BE00089838A81282F30E03D832C838C819D81DD
:101BF00081309105D1F02C813D81223031052CF4CA
:101C00008C819D81009761F01FC02C813D81223025
:101C1000310581F08C819D818330910581F014C064
:101C2000EAE3F0E08B81808310C0E8E3F0E08B8191
:101C300080830BC0E5E3F0E08B81808306C0E2E3A4
:101C4000F0E08B81808301C0198289810F900F9011
:101C50000F900F900F90CF91DF910895DF93CF9366
:101C600000D000D00F92CDB7DEB78A836B8381E0BE
:101C700089838A81282F30E03D832C838C819D814C
:101C80008130910529F12C813D81223031052CF4E0
:101C90008C819D81009761F04BC02C813D81223069
:101CA000310531F18C819D818330910589F140C0EE
:101CB000ABE3B0E0EBE3F0E080818F708C93ABE3BB
:101CC000B0E0EBE3F0E090818B81892B8C9331C005
:101CD000A8E3B0E0E8E3F0E080818F708C93A8E3A4
:101CE000B0E0E8E3F0E090818B81892B8C9321C0F8
:101CF000A5E3B0E0E5E3F0E080818F708C93A5E38D
:101D0000B0E0E5E3F0E090818B81892B8C9311C0EA
:101D1000A2E3B0E0E2E3F0E080818F708C93A2E375
:101D2000B0E0E2E3F0E090818B81892B8C9301C0DD
:101D3000198289810F900F900F900F900F90CF9183
:101D4000DF910895DF93CF93CDB7DEB7A7E2B0E080
:101D5000E7E2F0E0808180648C93A7E2B0E0E7E204
:101D6000F0E080818F778C93A7E2B0E0E7E2F0E0CB
:101D700080818F7D8C93A6E2B0E0E6E2F0E0808186
:101D8000887F8C93A6E2B0E0E6E2F0E08081876095
:101D90008C93A6E2B0E0E6E2F0E0808180688C936C
:101DA000CF91DF910895DF93CF93CDB7DEB7A6E251
:101DB000B0E0E6E2F0E0808180628C93A0E5B0E0E4
:101DC000E0E5F0E080818F718C93A0E5B0E0E0E584
:101DD000F0E080818C93CF91DF910895DF93CF93D2
:101DE000CDB7DEB7A6E2B0E0E6E2F0E08081886041
:101DF0008C93CF91DF910895DF93CF930F92CDB75E
:101E0000DEB78983A7E2B0E0E7E2F0E08081807E80
:101E10008C93A7E2B0E0E7E2F0E090818981892B22
:101E20008C93A6E2B0E0E6E2F0E0808180648C93DF
:101E3000E6E2F0E0808182958F70882F90E08170DB
:101E400090700097A9F30F90CF91DF910895DF93E1
:101E5000CF930F92CDB7DEB78983A7E2B0E0E7E278
:101E6000F0E08081807E8C93A7E2B0E0E7E2F0E0D2
:101E700090818981892B8C93A6E2B0E0E6E2F0E0C4
:101E8000808180648C930F90CF91DF910895DF93D0
:101E9000CF9300D0CDB7DEB7E4E2F0E08081882FA9
:101EA00090E09A838983E5E2F0E08081882F90E0DA
:101EB000982F88279C0189819A81822B932B9A8362
:101EC000898389819A810F900F90CF91DF91089536
:101ED000DF93CF9300D0CDB7DEB79A838983898112
:101EE0009A819093A2008093A1000F900F90CF91C0
:101EF000DF9108951F920F920FB60F9211242F9326
:101F00003F934F935F936F937F938F939F93AF9381
:101F1000BF93EF93FF93DF93CF93CDB7DEB7E091FD
:101F2000A100F091A2000995CF91DF91FF91EF916F
:101F3000BF91AF919F918F917F916F915F914F91E1
:101F40003F912F910F900FBE0F901F901895DF9328
:101F5000CF93CDB7DEB782E063E041E00E94E60AAE
:101F600082E064E041E00E94E60A82E065E041E050
:101F70000E94E60A82E066E041E00E94E60ACF9114
:101F8000DF9108950F931F93DF93CF93CDB7DEB703
:101F9000C957D0400FB6F894DEBF0FBECDBFFE01CB
:101FA000EB58FF4F91838083FE01E958FF4F608318
:101FB000FE01E958FF4F8081282F30E0EA963FAFBD
:101FC0002EAFEA97EA968EAD9FADEA97009749F05B
:101FD000EA96EEADFFADEA97E130F10509F410C3E2
:101FE00047C5FE01ED58FF4F11821082F9C282E011
:101FF00063E040E00E94F50B82E064E041E00E9473
:10200000F50B82E065E041E00E94F50B82E066E0BE
:1020100041E00E94F50BFE01E359FF4F80E090E0A4
:10202000A0EEB0E480839183A283B3838E0107592D
:102030001F4FFE01E359FF4F6081718182819381BF
:1020400020E030E04AE755E40E941F02DC01CB01AA
:10205000F80180839183A283B383FE01E759FF4F88
:10206000608171818281938120E030E040E85FE30C
:102070000E947903882344F4FE01E959FF4F81E06F
:1020800090E09183808364C0FE01E759FF4F608137
:1020900071818281938120E03FEF4FE757E40E94F6
:1020A000190318160CF043C0FE01E359FF4F60817D
:1020B00071818281938120E030E040E251E40E940E
:1020C0001F02DC01CB018E0109591F4FBC01CD015C
:1020D0000E944900DC01CB01F801918380831FC07D
:1020E000FE01EB59FF4F80E991E091838083FE016F
:1020F000EB59FF4F808191810197F1F7FE01EB5978
:10210000FF4F91838083DE01A959BF4FFE01E9593A
:10211000FF4F80819181019711969C938E93FE01D0
:10212000E959FF4F808191810097D1F627C08E0138
:1021300009591F4FFE01E759FF4F6081718182816C
:1021400093810E944900DC01CB01F80191838083D7
:10215000DE01AD59BF4FFE01E959FF4F80819181EA
:102160008D939C93FE01ED59FF4F808191810197E2
:10217000F1F7FE01ED59FF4F9183808382E063E028
:1021800041E00E94F50B82E064E040E00E94F50B24
:1021900082E065E041E00E94F50B82E066E041E00C
:1021A0000E94F50BFE01E15AFF4F80E090E0A0EEA7
:1021B000B0E480839183A283B3838E01055A1F4FBD
:1021C000FE01E15AFF4F608171818281938120E09D
:1021D00030E04AE755E40E941F02DC01CB01F80120
:1021E00080839183A283B383FE01E55AFF4F608110
:1021F00071818281938120E030E040E85FE30E94BA
:102200007903882344F4FE01E75AFF4F81E090E010
:102210009183808364C0FE01E55AFF4F6081718124
:102220008281938120E03FEF4FE757E40E9419033A
:1022300018160CF043C0FE01E15AFF4F6081718116
:102240008281938120E030E040E251E40E941F024D
:10225000DC01CB018E01075A1F4FBC01CD010E944A
:102260004900DC01CB01F801918380831FC0FE018E
:10227000E95AFF4F80E991E091838083FE01E95A9A
:10228000FF4F808191810197F1F7FE01E95AFF4FDD
:1022900091838083DE01A75ABF4FFE01E75AFF4FAB
:1022A00080819181019711969C938E93FE01E75A4C
:1022B000FF4F808191810097D1F627C08E01075A88
:1022C0001F4FFE01E55AFF4F60817181828193812A
:1022D0000E944900DC01CB01F80191838083DE017B
:1022E000AB5ABF4FFE01E75AFF4F808191818D931A
:1022F0009C93FE01EB5AFF4F808191810197F1F78A
:10230000FE01EB5AFF4F9183808382E063E041E05E
:102310000E94F50B82E064E041E00E94F50B82E050
:1023200065E040E00E94F50B82E066E041E00E943B
:10233000F50BFE01EF5AFF4F80E090E0A0EEB0E415
:1023400080839183A283B3838E01035B1F4FFE01C1
:10235000EF5AFF4F608171818281938120E030E0EC
:102360004AE755E40E941F02DC01CB01F80180839B
:102370009183A283B383FE01E35BFF4F6081718190
:102380008281938120E030E040E85FE30E9479039E
:10239000882344F4FE01E55BFF4F81E090E09183E8
:1023A000808364C0FE01E35BFF4F608171818281A5
:1023B000938120E03FEF4FE757E40E94190318167E
:1023C0000CF043C0FE01EF5AFF4F608171818281A2
:1023D000938120E030E040E251E40E941F02DC01E2
:1023E000CB018E01055B1F4FBC01CD010E9449004E
:1023F000DC01CB01F801918380831FC0FE01E75B04
:10240000FF4F80E991E091838083FE01E75BFF4FFE
:10241000808191810197F1F7FE01E75BFF4F918386
:102420008083DE01A55BBF4FFE01E55BFF4F80812E
:102430009181019711969C938E93FE01E55BFF4F6E
:10244000808191810097D1F627C08E01055B1F4FD7
:10245000FE01E35BFF4F60817181828193810E9465
:102460004900DC01CB01F80191838083DE01A95B87
:10247000BF4FFE01E55BFF4F808191818D939C935F
:10248000FE01E95BFF4F808191810197F1F7FE0129
:10249000E95BFF4F9183808382E063E041E00E942B
:1024A000F50B82E064E041E00E94F50B82E065E01C
:1024B00041E00E94F50B82E066E040E00E94F50BEF
:1024C000FE01ED5BFF4F80E090E0A0EEB0E4808382
:1024D0009183A283B3838E01015C1F4FFE01ED5BEC
:1024E000FF4F608171818281938120E030E04AE773
:1024F00055E40E941F02DC01CB01F8018083918327
:10250000A283B383FE01FF966081718182819381F2
:1025100020E030E040E85FE30E94790388232CF458
:1025200081E090E09EAF8DAF46C0FE01FF966081D6
:1025300071818281938120E03FEF4FE757E40E9451
:102540001903181664F5FE01ED5BFF4F6081718180
:102550008281938120E030E040E251E40E941F023A
:10256000DC01CB01BC01CD010E944900DC01CB01A3
:102570009EAF8DAF0FC080E991E09CAF8BAF8BAD6C
:102580009CAD0197F1F79CAF8BAF8DAD9EAD0197E0
:102590009EAF8DAF8DAD9EAD009769F716C0FE0161
:1025A000FF9660817181828193810E944900DC01E4
:1025B000CB019EAF8DAF8DAD9EAD9AAF89AF89AD8A
:1025C0009AAD0197F1F79AAF89AFDE01AD58BF4FD1
:1025D000FE01ED58FF4F8081918101968D939C9370
:1025E000FE01ED58FF4FDE01AB58BF4F2081318116
:1025F0008D919C9111972817390708F4F8CC38C2AF
:10260000FE01EF58FF4F1182108223C282E063E087
:1026100041E00E94F50B82E064E041E00E94F50B8E
:1026200082E065E041E00E94F50B82E066E040E078
:102630000E94F50B80E090E0A0EEB0E48DAB9EAB85
:10264000AFABB8AF6DA97EA98FA998AD20E030E0FF
:102650004AE755E40E941F02DC01CB0189AB9AAB2B
:10266000ABABBCAB69A97AA98BA99CA920E030E0EF
:1026700040E85FE30E94790388232CF481E090E036
:1026800098AB8FA73FC069A97AA98BA99CA920E024
:102690003FEF4FE757E40E94190318164CF56DA958
:1026A0007EA98FA998AD20E030E040E251E40E947D
:1026B0001F02DC01CB01BC01CD010E944900DC01FD
:1026C000CB0198AB8FA70FC080E991E09EA78DA7A3
:1026D0008DA59EA50197F1F79EA78DA78FA598A917
:1026E000019798AB8FA78FA598A9009769F714C099
:1026F00069A97AA98BA99CA90E944900DC01CB0198
:1027000098AB8FA78FA598A99CA78BA78BA59CA5F5
:102710000197F1F79CA78BA782E063E041E00E945C
:10272000F50B82E064E041E00E94F50B82E065E099
:1027300040E00E94F50B82E066E041E00E94F50B6C
:1027400080E090E0A0EEB0E48FA398A7A9A7BAA775
:102750006FA178A589A59AA520E030E04AE755E465
:102760000E941F02DC01CB018BA39CA3ADA3BEA3DF
:102770006BA17CA18DA19EA120E030E040E85FE349
:102780000E94790388232CF481E090E09AA389A326
:102790003FC06BA17CA18DA19EA120E03FEF4FE740
:1027A00057E40E94190318164CF56FA178A589A566
:1027B0009AA520E030E040E251E40E941F02DC01D3
:1027C000CB01BC01CD010E944900DC01CB019AA3E1
:1027D00089A30FC080E991E098A38F8F8F8D98A176
:1027E0000197F1F798A38F8F89A19AA101979AA3D6
:1027F00089A389A19AA1009769F714C06BA17CA154
:102800008DA19EA10E944900DC01CB019AA389A35E
:1028100089A19AA19E8F8D8F8D8D9E8D0197F1F745
:102820009E8F8D8F82E063E041E00E94F50B82E095
:1028300064E040E00E94F50B82E065E041E00E9428
:10284000F50B82E066E041E00E94F50B80E090E04D
:10285000A0EEB0E4898F9A8FAB8FBC8F698D7A8D93
:102860008B8D9C8D20E030E04AE755E40E941F02EA
:10287000DC01CB018D8B9E8BAF8BB88F6D897E89F0
:102880008F89988D20E030E040E85FE30E94790373
:1028900088232CF481E090E09C8B8B8B3FC06D896A
:1028A0007E898F89988D20E03FEF4FE757E40E94A3
:1028B000190318164CF5698D7A8D8B8D9C8D20E04F
:1028C00030E040E251E40E941F02DC01CB01BC0178
:1028D000CD010E944900DC01CB019C8B8B8B0FC08A
:1028E00080E991E09A8B898B89899A890197F1F720
:1028F0009A8B898B8B899C8901979C8B8B8B8B897D
:102900009C89009769F714C06D897E898F89988D9D
:102910000E944900DC01CB019C8B8B8B8B899C89AD
:10292000988B8F878F8598890197F1F7988B8F8780
:1029300082E063E040E00E94F50B82E064E041E069
:102940000E94F50B82E065E041E00E94F50B82E019
:1029500066E041E00E94F50B80E090E0A0EEB0E47C
:102960008B879C87AD87BE876B857C858D859E8593
:1029700020E030E04AE755E40E941F02DC01CB0171
:102980008F839887A987BA876F81788589859A858B
:1029900020E030E040E85FE30E94790388232CF4D4
:1029A00081E090E09E838D833FC06F81788589852B
:1029B0009A8520E03FEF4FE757E40E94190318166D
:1029C0004CF56B857C858D859E8520E030E040E26E
:1029D00051E40E941F02DC01CB01BC01CD010E9429
:1029E0004900DC01CB019E838D830FC080E991E01B
:1029F0009C838B838B819C810197F1F79C838B83D4
:102A00008D819E8101979E838D838D819E8100970C
:102A100069F714C06F81788589859A850E9449007D
:102A2000DC01CB019E838D838D819E819A83898376
:102A300089819A810197F1F79A838983DE01AF58E2
:102A4000BF4FFE01EF58FF4F8081918101968D931A
:102A50009C93FE01EF58FF4FDE01AB58BF4F208122
:102A600031818D919C9111972817390708F4CECDAB
:102A7000C758DF4F0FB6F894DEBF0FBECDBFCF9162
:102A8000DF911F910F910895DF93CF9300D00F92A4
:102A9000CDB7DEB79B838A8381E08983EA81FB819E
:102AA0008081EA81FB819181692F41E00E94E60AE1
:102AB000898389810F900F900F90CF91DF910895B6
:102AC000DF93CF9300D00F92CDB7DEB79B838A837D
:102AD00081E08983EA81FB818281813059F4EA8136
:102AE000FB818081EA81FB819181692F41E00E9415
:102AF000F50B11C0EA81FB818281882359F4EA81B8
:102B0000FB818081EA81FB819181692F40E00E94F5
:102B1000F50B01C0198289810F900F900F90CF9112
:102B2000DF910895DF93CF9300D00F92CDB7DEB73A
:102B30009B838A8381E08983EA81FB818281813062
:102B400059F4EA81FB818081EA81FB819181692FBF
:102B500040E00E94F50B11C0EA81FB81828188234D
:102B600059F4EA81FB818081EA81FB819181692F9F
:102B700041E00E94F50B01C0198289810F900F90EE
:102B80000F90CF91DF910895DF93CF9300D00F92F4
:102B9000CDB7DEB79B838A8381E0898380919800DB
:102BA000882371F4EA81FB818081EA81FB81918134
:102BB000692F41E00E94F50B81E08093980010C0DE
:102BC00080919800813061F4EA81FB818081EA8103
:102BD000FB819181692F40E00E94F50B10929800D3
:102BE00089810F900F900F90CF91DF910895DF931F
:102BF000CF93CDB7DEB780E060E040E00E94E60A08
:102C000080E061E040E00E94E60A80E062E040E0AF
:102C10000E94E60A80E063E040E00E94E60A80E06D
:102C200060E041E00E94F50B80E061E041E00E943D
:102C3000F50B80E062E041E00E94F50B80E063E08C
:102C400041E00E94F50B81E064E041E00E94E60A69
:102C500081E065E041E00E94E60A81E066E041E053
:102C60000E94E60A81E067E041E00E94E60A81E016
:102C700064E041E00E94F50B81E065E041E00E94E4
:102C8000F50B81E066E041E00E94F50B81E067E032
:102C900041E00E94F50BCF91DF910895DF93CF9330
:102CA000CDB7DEB762970FB6F894DEBF0FBECDBFCB
:102CB000198A188A8FEF8F8784E0898BB4C081E0EE
:102CC000698940E00E94F50B188AA1C09E012E5E22
:102CD0003F4F80E06889A9010E94040D8A898823FA
:102CE000A9F48989882F90E0AC014450504088892C
:102CF000282F30E0CA01880F991F880F991F820F73
:102D0000931FFC01E957FF4F80818F8780E090E09F
:102D1000A0EAB1E48B879C87AD87BE876B857C85F5
:102D20008D859E8520E030E04AE755E40E941F0231
:102D3000DC01CB018F839887A987BA876F8178855B
:102D400089859A8520E030E040E85FE30E947903BE
:102D500088232CF481E090E09E838D833FC06F81B7
:102D6000788589859A8520E03FEF4FE757E40E94F8
:102D7000190318164CF56B857C858D859E8520E0A2
:102D800030E040E251E40E941F02DC01CB01BC01B3
:102D9000CD010E944900DC01CB019E838D830FC0D1
:102DA00080E991E09C838B838B819C810197F1F773
:102DB0009C838B838D819E8101979E838D838D81E2
:102DC0009E81009769F71DC06F81788589859A85F6
:102DD0000E944900DC01CB019E838D838D819E8101
:102DE0009A83898389819A810197F1F79A838983EC
:102DF00008C09E012E5E3F4F80E06889A9010E94B5
:102E0000040D8A898823A9F388898F5F888B888934
:102E1000843008F45BCF81E0698941E00E94F50BC2
:102E200089898F5F898B8989883008F448CF8F859D
:102E300062960FB6F894DEBF0FBECDBFCF91DF9183
:102E40000895DF93CF93CDB7DEB72F970FB6F894E1
:102E5000DEBF0FBECDBF8F8781E061E040E00E9402
:102E6000F50B81E062E040E00E94F50B80E06F85A9
:102E70000E942E0E81E063E041E00E94F50B80E0AD
:102E800090E0A0E0B0E48B879C87AD87BE876B8520
:102E90007C858D859E8520E030E04AE755E40E94E0
:102EA0001F02DC01CB018F839887A987BA876F81C6
:102EB000788589859A8520E030E040E85FE30E94CC
:102EC000790388232CF481E090E09E838D833FC0BA
:102ED0006F81788589859A8520E03FEF4FE757E439
:102EE0000E94190318164CF56B857C858D859E858F
:102EF00020E030E040E251E40E941F02DC01CB01FF
:102F0000BC01CD010E944900DC01CB019E838D8371
:102F10000FC080E991E09C838B838B819C8101971A
:102F2000F1F79C838B838D819E8101979E838D8396
:102F30008D819E81009769F714C06F81788589859E
:102F40009A850E944900DC01CB019E838D838D818F
:102F50009E819A83898389819A810197F1F79A8367
:102F6000898381E063E040E00E94F50B2F960FB665
:102F7000F894DEBF0FBECDBFCF91DF910895DF93F0
:102F8000CF93CDB7DEB76D970FB6F894DEBF0FBE07
:102F9000CDBF8D8F81E061E041E00E94F50B81E0C3
:102FA00062E040E00E94F50B8D8D982F907F80E0CD
:102FB000692F0E942E0E81E063E041E00E94F50B34
:102FC00080E090E0A0E0B0E4898F9A8FAB8FBC8F57
:102FD000698D7A8D8B8D9C8D20E030E04AE755E439
:102FE0000E941F02DC01CB018D8B9E8BAF8BB88FB3
:102FF0006D897E898F89988D20E030E040E85FE31D
:103000000E94790388232CF481E090E09C8B8B8BC9
:103010003FC06D897E898F89988D20E03FEF4FE713
:1030200057E40E94190318164CF5698D7A8D8B8D23
:103030009C8D20E030E040E251E40E941F02DC0160
:10304000CB01BC01CD010E944900DC01CB019C8B6E
:103050008B8B0FC080E991E09A8B898B89899A8943
:103060000197F1F79A8B898B8B899C8901979C8BAF
:103070008B8B8B899C89009769F714C06D897E8939
:103080008F89988D0E944900DC01CB019C8B8B8B32
:103090008B899C89988B8F878F8598890197F1F709
:1030A000988B8F8781E063E040E00E94F50B8D8D67
:1030B000982F9295907F80E0692F0E942E0E81E0DC
:1030C00063E041E00E94F50B80E090E0A0E0B0E416
:1030D0008B879C87AD87BE876B857C858D859E851C
:1030E00020E030E04AE755E40E941F02DC01CB01FA
:1030F0008F839887A987BA876F81788589859A8514
:1031000020E030E040E85FE30E94790388232CF45C
:1031100081E090E09E838D833FC06F8178858985B3
:103120009A8520E03FEF4FE757E40E9419031816F5
:103130004CF56B857C858D859E8520E030E040E2F6
:1031400051E40E941F02DC01CB01BC01CD010E94B1
:103150004900DC01CB019E838D830FC080E991E0A3
:103160009C838B838B819C810197F1F79C838B835C
:103170008D819E8101979E838D838D819E81009795
:1031800069F714C06F81788589859A850E94490006
:10319000DC01CB019E838D838D819E819A838983FF
:1031A00089819A810197F1F79A83898381E063E0AD
:1031B00040E00E94F50B6D960FB6F894DEBF0FBE8F
:1031C000CDBFCF91DF910895DF93CF93CDB7DEB719
:1031D000E8970FB6F894DEBF0FBECDBF80E090E059
:1031E000A0EFB1E48DAB9EABAFABB8AF6DA97EA93C
:1031F0008FA998AD20E030E04AE755E40E941F0215
:10320000DC01CB0189AB9AABABABBCAB69A97AA9AA
:103210008BA99CA920E030E040E85FE30E9479039D
:1032200088232CF481E090E098AB8FA73FC069A978
:103230007AA98BA99CA920E03FEF4FE757E40E94B1
:10324000190318164CF56DA97EA98FA998AD20E039
:1032500030E040E251E40E941F02DC01CB01BC01DE
:10326000CD010E944900DC01CB0198AB8FA70FC0B4
:1032700080E991E09EA78DA78DA59EA50197F1F706
:103280009EA78DA78FA598A9019798AB8FA78FA50B
:1032900098A9009769F714C069A97AA98BA99CA974
:1032A0000E944900DC01CB0198AB8FA78FA598A99C
:1032B0009CA78BA78BA59CA50197F1F79CA78BA733
:1032C00080E20E94211780E20E94211780E80E947C
:1032D000211780E090E0A0E8BFE38FA398A7A9A7FB
:1032E000BAA76FA178A589A59AA520E030E04AE7A2
:1032F00055E40E941F02DC01CB018BA39CA3ADA36C
:10330000BEA36BA17CA18DA19EA120E030E040E88E
:103310005FE30E94790388232CF481E090E09AA374
:1033200089A33FC06BA17CA18DA19EA120E03FEFAE
:103330004FE757E40E94190318164CF56FA178A5C2
:1033400089A59AA520E030E040E251E40E941F02E6
:10335000DC01CB01BC01CD010E944900DC01CB01A5
:103360009AA389A30FC080E991E098A38F8F8F8DD6
:1033700098A10197F1F798A38F8F89A19AA101973E
:103380009AA389A389A19AA1009769F714C06BA198
:103390007CA18DA19EA10E944900DC01CB019AA3D2
:1033A00089A389A19AA19E8F8D8F8D8D9E8D019766
:1033B000F1F79E8F8D8F80E00E94211780EF0E9491
:1033C000211780E090E0A0E8BFE3898F9A8FAB8F50
:1033D000BC8F698D7A8D8B8D9C8D20E030E04AE723
:1033E00055E40E941F02DC01CB018D8B9E8BAF8BBD
:1033F000B88F6D897E898F89988D20E030E040E814
:103400005FE30E94790388232CF481E090E09C8B99
:103410008B8B3FC06D897E898F89988D20E03FEF2F
:103420004FE757E40E94190318164CF5698D7A8D01
:103430008B8D9C8D20E030E040E251E40E941F0221
:10344000DC01CB01BC01CD010E944900DC01CB01B4
:103450009C8B8B8B0FC080E991E09A8B898B89893B
:103460009A890197F1F79A8B898B8B899C890197AF
:103470009C8B8B8B8B899C89009769F714C06D8915
:103480007E898F89988D0E944900DC01CB019C8B3D
:103490008B8B8B899C89988B8F878F8598890197D7
:1034A000F1F7988B8F8780E00E94211780E10E94BE
:1034B000211780E090E0A0E0B0E48B879C87AD8787
:1034C000BE876B857C858D859E8520E030E04AE750
:1034D00055E40E941F02DC01CB018F839887A987E6
:1034E000BA876F81788589859A8520E030E040E849
:1034F0005FE30E94790388232CF481E090E09E83AF
:103500008D833FC06F81788589859A8520E03FEF64
:103510004FE757E40E94190318164CF56B857C851C
:103520008D859E8520E030E040E251E40E941F023C
:10353000DC01CB01BC01CD010E944900DC01CB01C3
:103540009E838D830FC080E991E09C838B838B8168
:103550009C810197F1F79C838B838D819E810197DC
:103560009E838D838D819E81009769F714C06F8142
:10357000788589859A850E944900DC01CB019E836C
:103580008D838D819E819A83898389819A81019718
:10359000F1F79A83898380E00E94211780E60E94D8
:1035A0002117E8960FB6F894DEBF0FBECDBFCF91BE
:1035B000DF910895DF93CF930F92CDB7DEB7898364
:1035C0008981807F0E94211789818295807F0E9456
:1035D00021170F90CF91DF910895DF93CF9300D003
:1035E0000F92CDB7DEB79B838A8319820EC0898183
:1035F000282F30E08A819B81FC01E20FF31F80813C
:103600000E94BF1789818F5F89838981282F30E0CD
:103610008A819B81FC01E20FF31F8081882339F7A7
:103620000F900F900F90CF91DF9108950F931F93FC
:10363000DF93CF93CDB7DEB765970FB6F894DEBFB3
:103640000FBECDBF6A8B7B8B8C8B9D8B19828A8939
:103650009B89AC89BD890097A105B10599F580E3E7
:103660000E94BF174FC08981082F112707FD1095B1
:103670008A899B89AC89BD892AE030E040E050E02E
:10368000BC01CD010E94231DDC01CB01282FCE01FE
:103690000296FC01E00FF11F20838A899B89AC8987
:1036A000BD892AE030E040E050E0BC01CD010E943D
:1036B000231DDA01C9018A8B9B8BAC8BBD8B898161
:1036C0008F5F89838A899B89AC89BD890097A10511
:1036D000B10549F689818150898311C08981282FDC
:1036E000332727FD3095CE010296FC01E20FF31F30
:1036F0008081805D0E94BF17898181508983898183
:10370000882364F765960FB6F894DEBF0FBECDBF71
:10371000CF91DF911F910F910895DF93CF9300D048
:10372000CDB7DEB789836A838981813029F48A81A4
:1037300080580E94DA1A07C08981823021F48A8178
:1037400080540E94DA1A0F900F90CF91DF91089564
:10375000DF93CF9300D00F92CDB7DEB79B838A83E0
:1037600081E08983EA81FB818081EA81FB8191810B
:10377000692F40E00E94E60A898389810F900F90AB
:103780000F90CF91DF910895DF93CF9300D000D0B9
:10379000CDB7DEB79C838B8381E08983EB81FC818D
:1037A0008281882371F4EB81FC818081EB81FC8133
:1037B00091819E012E5F3F4F692FA9010E94040D48
:1037C00014C0EB81FC818281813071F4EB81FC813A
:1037D0008081EB81FC8191819E012E5F3F4F692F9B
:1037E000A9010E94040D01C0198289810F900F90D8
:1037F0000F900F90CF91DF910895DF93CF93CDB7C6
:10380000DEB764970FB6F894DEBF0FBECDBF80E081
:1038100064E041E00E94E60A80E065E041E00E9449
:10382000E60A80E066E041E00E94E60A80E067E0A8
:1038300041E00E94E60A81E061E041E00E94E60A80
:1038400081E062E041E00E94E60A81E063E041E05D
:103850000E94E60A0E94E41880E690E00E94ED1AB9
:1038600080E090E0AAE7B4E48B879C87AD87BE87B1
:103870006B857C858D859E8520E030E04AE755E4A8
:103880000E941F02DC01CB018F839887A987BA872A
:103890006F81788589859A8520E030E040E85FE394
:1038A0000E94790388232CF481E090E09E838D832D
:1038B0003FC06F81788589859A8520E03FEF4FE78B
:1038C00057E40E94190318164CF56B857C858D858D
:1038D0009E8520E030E040E251E40E941F02DC01BE
:1038E000CB01BC01CD010E944900DC01CB019E83CC
:1038F0008D830FC080E991E09C838B838B819C81B9
:103900000197F1F79C838B838D819E8101979E8324
:103910008D838D819E81009769F714C06F817885B2
:1039200089859A850E944900DC01CB019E838D83A5
:103930008D819E819A83898389819A810197F1F78C
:103940009A83898381E00E94DA1A81E060E00E9414
:103950008D1B8AE690E00E94ED1A80E061E040E075
:103960000E94E60A0E94A20E1A8A198A82E060E08A
:103970000E948D1B86E790E00E94ED1A82E069E0CC
:103980000E948D1B8CE790E00E94ED1A81E00E945E
:10399000FC0E0E94470F9C8B8B8B8B899C89CC01E2
:1039A000A0E0B0E028E833E140E050E0BC01CD0108
:1039B0000E94041DDC01CB01072E7AE0B695A79585
:1039C000979587957A95D1F7702D988B8F872F854E
:1039D000388989899A8928173907C1F282E065E018
:1039E0000E948D1B8F859889CC01A0E0B0E0BC01BE
:1039F000CD010E94161B8F8598899A8B898B82E056
:103A00006BE00E948D1BC2CF629FD001739FF001BB
:103A1000829FE00DF11D649FE00DF11D929FF00D5E
:103A2000839FF00D749FF00D659FF00D9927729F95
:103A3000B00DE11DF91F639FB00DE11DF91FBD0120
:103A4000CF0111240895A1E21A2EAA1BBB1BFD0170
:103A50000DC0AA1FBB1FEE1FFF1FA217B307E4076D
:103A6000F50720F0A21BB30BE40BF50B661F771FC5
:103A7000881F991F1A9469F76095709580959095A5
:103A80009B01AC01BD01CF0108952F923F924F924F
:103A90005F926F927F928F929F92AF92BF92CF92DE
:103AA000DF92EF92FF920F931F93CF93DF93CDB7E7
:103AB000DEB7CA1BDB0B0FB6F894DEBF0FBECDBF5F
:103AC00009942A88398848885F846E847D848C8430
:103AD0009B84AA84B984C884DF80EE80FD800C8139
:103AE0001B81AA81B981CE0FD11D0FB6F894DEBF1C
:0C3AF0000FBECDBFED010895F894FFCF8C
:103AFC0077656C636F6D652E2E00414443205245F3
:103B0C004144494E4700566F6C743D004D560000C1
:103B1C00000000000000003134372A3235383033D1
:083B2C003639234142434400F5
:00000001FF
